S0130000686179616F7368696B69322E73726563B5
S113000045C0000061C000005FC000005DC000008A
S11300105BC0000059C0000057C0000055C000007C
S113002053C0000051C000004FC000004DC000008C
S11300304BC0000049C0000047C0000045C000009C
S113004045C30000BBC300003FC000003DC000002A
S11300503BC0000039C0000037C0000035C00000BC
S113006033C0000031C000002FC000002DC00000CC
S11300702BC0000029C0000027C0000025C00000DC
S113008023C0000021C000001FC0000011241FBEB7
S1130090CFEFD0E4DEBFCDBF11E0A0E0B1E0ECECE7
S11300A0F0E100E00BBF02C007900D92A034B1074D
S11300B0D9F721E0A0E4B1E001C01D92A435B20754
S11300C0E1F795D40C9464089BCF1092B90082E0B8
S11300D08093B800089594EA9093BC00ECEBF0E0B0
S11300E090819923ECF78E7F8093BB0084E8809302
S11300F0BC00ECEBF0E080818823ECF76093BB005C
S113010084E88093BC00ECEBF0E080818823ECF77A
S113011084E98093BC000895CF93DF93DA01F894C7
S113012094EA9093BC00ECEBF0E090819923ECF717
S11301308093BB0094E89093BC00ECEBF0E09081DA
S11301409923ECF794EA9093BC00ECEBF0E09081F7
S11301509923ECF781608093BB0084E88093BC0012
S1130160ECEBF0E080818823ECF7862F90E0019798
S1130170181619069CF4AC014A0F5B1FECEBF0E077
S113018094EC2BEB30E0908380818823ECF7E90139
S113019088818D934A175B07B1F701C0AD0184E8EC
S11301A08093BC00ECEBF0E080818823ECF7809135
S11301B0BB00FA01808384E98093BC007894DF91CA
S11301C0CF910895CF93C82FC07F90915001911182
S11301D0C860611105C0CE7F6C2F8EE47CDF05C042
S11301E0C160682F61608EE476DF8FEC97E0019741
S11301F0F1F700C000006C2F64608EE46CDF8FECBC
S113020097E00197F1F700C000006C2F6B7F8EE43C
S113021062DFCF910895CF93C82F60E0D3DF60E011
S11302208C2F8295807FCEDFCC7F39F08FE99FE0E1
S11302300197F1F700C0000004C095E89A95F1F722
S11302400000CF9108958FE295E70197F1F700C080
S1130250000060E080E3B6DF8FE097E20197F1F7FA
S113026000C0000060E080E3ADDF8FEC97E0019711
S1130270F1F700C0000060E080E3A4DF8FEC97E0BA
S11302800197F1F700C0000060E080E29BDF8FEC93
S113029097E00197F1F700C000008CE2BCDF8EE02C
S11302A0BADF86E0B8DF82E0B6DF81E0B4CF08953C
S11302B0CF93C82F61E086DF61E08C2F8295807F29
S11302C081DF85E88A95F1F70000CF910895CF93F7
S11302D0DF93EC018881882329F02196E9DF899155
S11302E08111FCCFDF91CF910895CF93DF9300D09C
S11302F000D0CDB7DEB790E8998390EC9A8394E967
S11303009B8394ED9C83FE01E80FF11D8181860F90
S113031082DF0F900F900F900F90DF91CF9108958F
S113032080E479DF84E0C4DF86E0C2DF84E0C0DFFC
S11303308FE1BEDF81E1BCDF8FE1BADF88E0B8DFA7
S113034085E1B6DF80E0B4DF84E0B2DF8EE0B0DFC9
S113035085E1AEDF84E0ACDF84E0AADF80E0A8DFE3
S113036080E0A6DF80E0A4DF84E0A2DF84E0A0DFF9
S113037085E19EDF8EE09CDF84E09ADF80E098DFF9
S113038080E096DF8FE194DF81E192DF8FE190DFFF
S113039081E18EDF8FE18CDF81E18ADF8FE188DF0D
S11303A080E086DF80E084DF8DE182DF85E080DF2E
S11303B08FE17EDF84E17CDF87E17ADF80E078DF34
S11303C080E076DF80E074DF83E172DF8AE170DF52
S11303D084E06EDF8BE06CDF89E16ADF80E068DF58
S11303E080E066DF84E064DF86E062DF85E060DF72
S11303F085E05EDF8DE15CDF8CE15ADF8CE158DF64
S113040080E056DF87E154DF85E152DF85E150DF8C
S113041085E14EDF85E14CDF85E14ADF87E148DF96
S113042080E046CF0895EF92FF920F931F93CF93EE
S1130430DF930F2EF6E4EF2EF1E0FF2EF02D00E512
S113044011E0E701F999FECF6991CE018E199F0958
S11304502DD6C017D107B1F7DF91CF911F910F911E
S1130460FF90EF900895EF92FF920F931F93CF9315
S1130470DF930F2EF0E5EF2EF1E0FF2EF02DC6E412
S1130480D1E001E010E006541140F999FECFC80113
S11304908C0F9D1F03D68993CE15DF05B1F7DF912D
S11304A0CF911F910F91FF90EF9008950F931F9399
S11304B0CF93DF93C82F8BEAC89F812D1124869593
S11304C0982F990F980F2C2F291B622F660F660FF8
S11304D0660F621B0ADFC93021F081E38C0FE8DE6E
S11304E002C087E0E5DE80E5E3DED0E0FE01EA5B02
S11304F0FE4F80818A303CF184362CF083E6FE0185
S1130500EA5BFE4F80838AE3D3DECA5BDE4F9881C9
S113051017E69102812D11248595859597FD839584
S1130520805DC6DE88818102112D112415951595F3
S113053087FD1395110F912F990F990F190F811B97
S1130540805DB6DE39C0882354F08AE3B1DE80E2F0
S1130550AFDECA5BDE4F8881805DAADE2DC0873F97
S11305605CF08AE3A5DE8DE2A3DECA5BDE4F9881F0
S113057080E3891B9DDE20C08D392CF48DE9FE01BA
S1130580EA5BFE4F80838DE293DECA5BDE4F888197
S1130590992781950CF490950AE010E0B80157D59D
S11305A080E3860F85DE8881992781950CF49095E8
S11305B0B8014DD5805D7CDE80E07ADEDF91CF919D
S11305C01F910F910895CF93C0E08C2F6FDFCF5F01
S11305D0CA30D9F7CF910895CF9368E083E085DEE0
S11305E086E066DE8AE364DE80915101CDEC8C9F67
S11305F0812D1124869586958695805D59DE80919E
S113060051018C9FC12D1124C695C695C695CC0F5A
S11306109C2F990F990FC90F8C1B805D49DECF91D8
S11306200895CF93C82F6DE083E05FDEC430B9F046
S113063028F4C230D9F0C33071F015C0CE3019F0AF
S1130640CF3029F010C081E191E041DE0FC089E193
S113065091E03DDE0BC081E291E039DE07C089E222
S113066091E035DE03C081E391E031DEC093000107
S1130670CF91089561E980ED2ECD0895CF93DF9356
S113068000D0CDB7DEB781E089838A83AE014F5FA6
S11306905F4F62E080ED40DD898190E0982F8827EC
S11306A02A81822B0F900F90DF91CF910895E6DF7E
S11306B021E0892B09F420E0822F0895F999FECFD7
S11306C0EDC40895F999FECFF1C408951F920F92D5
S11306D00FB60F9211242F933F934F935F936F9311
S11306E07F938F939F93809140018F3F21F08F5F81
S11306F08093400102C01092400180914101909189
S113070042018A3091050CF048C040915201509149
S11307105301409550952091430130914401422367
S1130720532321E030E0082E02C0220F331F0A9425
S1130730E2F724233523232B91F461E070E029C0F0
S11307409B01082E02C0220F331F0A94E2F72423D0
S11307503523232BF1F090934201809341012091A2
S11307604001222314F085B902C08EE085B980913E
S1130770410190914201893091052CF0109242017F
S1130780109241010EC00196909342018093410161
S113079008C001968A30910599F610924201109290
S11307A041019F918F917F916F915F914F913F9103
S11307B02F910F900FBE0F901F9018951F920F92BC
S11307C00FB60F9211248F939F938091410185B9A5
S11307D08091410190914201893091052CF0109251
S11307E042011092410105C0019690934201809309
S11307F041019F918F910F900FBE0F901F901895FC
S1130800CF93DF93DC01662399F06150262F30E00B
S11308102F5F3F4F280F391FE0ECF0E0C6ECD0E02B
S1130820908195FFFDCF8D918883A217B307C1F7FF
S1130830DF91CF910895CF93DF93CDB7DEB728979B
S11308400FB6F894DEBF0FBECDBF98E0E1E0F1E053
S1130850DE01119601900D929A95E1F78F8368E07D
S1130860CE010196CDDF82E080936E007894D9DECC
S11308705F981DDF882359F0459A2FEF84E39CE0AD
S1130880215080409040E1F700C0000045984C9B07
S1130890FECF28960FB6F894DEBF0FBECDBFDF9112
S11308A0CF9108951F93CF93DF93CDB7DEB72897E9
S11308B00FB6F894DEBF0FBECDBF162F98E0E1E06F
S11308C0F1E0DE01119601900D929A95E1F78F8384
S11308D068E0CE01019694DF15B91092440110929C
S11308E043015F9A812F9DDE2FEF84E39CE021502A
S11308F080409040E1F700C000004C9BFECF28965A
S11309000FB6F894DEBF0FBECDBFDF91CF911F911C
S11309100895CF93DF93CDB7DEB728970FB6F89439
S1130920DEBF0FBECDBF98E0E9E0F1E0DE01119635
S113093001900D929A95E1F78823A9F080915101D5
S11309408E3130F58F5F809351018F8368E0CE0143
S1130950019656DF83E08C8383E18F8368E0CE01C8
S113096001964EDF2FC080915101882309F18150F7
S1130970809351018F8368E0CE01019641DF83E0CB
S11309808C8384E18F8368E0CE01019639DF1AC03D
S11309908F3150F08EE1809351018F8368E0CE0156
S11309A001962EDF83E08C838091510181110AC06E
S11309B081E0809351018F8368E0CE01019620DFAE
S11309C083E08C8309DE2FEF84E39CE02150804098
S11309D09040E1F700C000004C9BFECF28960FB674
S11309E0F894DEBF0FBECDBFDF91CF910895CF93B2
S11309F0DF93CDB7DEB729970FB6F894DEBF0FBEED
S1130A00CDBF82E084BD95E095BD9DE097BD98BDC6
S1130A1080936E0011B88FEF82B980E287B98CEDB4
S1130A2088B98FE084B98EE085B980E88AB980EE10
S1130A308BB983E390E09093C5008093C400109237
S1130A40C00088E18093C10086E08093C20088E002
S1130A50E1E0F1E0DE01119601900D928A95E1F753
S1130A6034DBF1DB07DE80E090E028DE8093510187
S1130A7081508E3118F084E180935101F4DC2FEF22
S1130A8084E39CE0215080409040E1F700C00000E6
S1130A9047DC8CE0C0DB97DD8091510190E09CDD68
S1130AA086E08C83809151018F8368E0CE010196AA
S1130AB0A7DE83E08C8381E08F834D9908C068E0D2
S1130AC0CE0101969DDE6894FF24F5F801C0F12C57
S1130AD04E9903C0EF2DE064FE2E81E08093500117
S1130AE08EE09FDDCC24C394D12CCE0101961C0151
S1130AF00F2EFBEAEF2EF02D082F39860F2EFAE089
S1130B006F2EF02D6894442442F80F2EF5E17F2EC9
S1130B10F02D0F2EF4E15F2EF02DF0FE59C020B120
S1130B2086B190E0880F991F880F991F8827822B20
S1130B30909353018093520119E0A12CB12C96019A
S1130B400A2C02C0220F331F0A94E2F7809152014B
S1130B509091530182239323892B59F0809143016F
S1130B6090914401282B392B309344012093430165
S1130B7027C0809143019091440128233923232BDA
S1130B80F9F09F2D9260892E6DE083E0AEDB89E35E
S1130B9091E09DDBE9E0AE16B10419F487E088DB4F
S1130BA003C088E2810F84DB81E045DEF5FE05C0E9
S1130BB01F8368E0802F998523DE82E032DDF82CE4
S1130BC0FFEFAF1ABF0A123119F01F5FF0FCB7CF65
S1130BD08F2D8370833019F42F2D2C7FF22E4D9995
S1130BE05BC0809100019DEF980F923090F48CE0EF
S1130BF012DB7F8268E0802F998502DE8EE011DDB2
S1130C006091510180E090E05DDD0DDC4D9BFECFF5
S1130C109EC0823079F50F2EF6E48F2EF1E09F2EE0
S1130C20F02DA12CB12C809152019091530180950B
S1130C30909596010A2C02C0220F331F0A94E2F702
S1130C4082239323892B31F0F40180818F5F808389
S1130C508A2D2CDCFFEFAF1ABF0A2FEF821A920AFB
S1130C608AE0A816B104F9F6DEDBF8946EE087E0BA
S1130C7019DE6DC08F3041F49F2D9C7FF92EF894BE
S1130C806EE087E00FDE63C08E3009F060C0F89438
S1130C906EE087E007DE5BC04E9959C08091000189
S1130CA09DEF980F923090F48CE0B5DA7F8268E083
S1130CB0802F9985A5DD8EE0B4DC6091510180E040
S1130CC090E000DDB0DB4E9BFECF41C0F6FE32C0AB
S1130CD0823009F0B9C10F2EF6E48F2EF1E09F2E79
S1130CE0F02DA12CB12C80915201909153019C01C3
S1130CF020953095C6010A2C02C0880F991F0A94CA
S1130D00E2F782239323892B31F0F401808181500F
S1130D1080838A2DCBDBFFEFAF1ABF0A2AE0A2162D
S1130D20B10441F08FEF881A980A80910001823053
S1130D30D1F28AC180910001823071F49F2D9160BB
S1130D40F92EEEE6F0E0408278946FE0ABDD0F2EF2
S1130D50F3E1BF2EF02D11C08F3041F4FF2DFC7F45
S1130D60FF2EF8946EE082E09DDDF1CF8E3079F7AE
S1130D70F8946EE082E096DDEACF34997AC08091EF
S1130D800001833019F57F8268E0802F998538DD72
S1130D9080914501811106C06092450168E083E0BD
S1130DA0A4DA5CC09FEF980F909345019E9D812D1E
S1130DB011248695282F220F280F921B692F660F66
S1130DC0660F660F691B6F5F90DA48C0843031F597
S1130DD05F8268E0802F998513DD809145018A3018
S1130DE019F480E096DDC9CFE82FF0E0EA5BFE4F0E
S1130DF09081915090835ADB909145019E9D812D65
S1130E0011248695282F220F280F921B692F660F15
S1130E10660F660F691B6B5F68DA20C08F30F1F0D4
S1130E208230E1F07F8268E0802F9985E9DC83E0FD
S1130E30F8DB609245018DE0EED9909145019E9DCD
S1130E40812D11248695282F220F280F921B692F9C
S1130E50660F660F660F691B6F5F47DA2FE78AE13B
S1130E6096E0215080409040E1F700C000004C9B88
S1130E70FECF32997DC080910001833019F57F82C5
S1130E8068E0802F9985BCDC809145018A3030F080
S1130E901092450161E080E028DA5EC091E0980F8D
S1130EA0909345019E9D812D11248695282F220F14
S1130EB0280F921B692F660F660F660F691B6F5F01
S1130EC014DA4AC0843031F5BF8268E0802F9985F6
S1130ED097DC809145018A3019F481E01ADD4DCF09
S1130EE0E82FF0E0EA5BFE4F90819F5F9083DEDAAB
S1130EF0909145019E9D812D11248695282F220FC6
S1130F00280F921B692F660F660F660F691B6B5FB4
S1130F10ECD922C08F3011F4459A1EC08230E1F022
S1130F207F8268E0802F99856BDC83E07ADB109206
S1130F3045018DE070D9909145019E9D812D11242C
S1130F408695282F220F280F921B692F660F660F94
S1130F50660F691B6F5FC9D9EFE7FAE126E0E1503C
S1130F60F0402040E1F700C000004C9BFECF05C0DC
S1130F70809100018F3009F445983399CECD80914A
S1130F800001833021F585E18F8368E0C10138DCFD
S1130F9084E047DB909145019E9D812D1124869527
S1130FA0282F220F280F921B692F660F660F660FDA
S1130FB0691B6B5F9AD98FE79AE1E6E08150904014
S1130FC0E040E1F700C000004C9BFECF31C084300C
S1130FD021F585E18F8368E0C10112DC83E021DB28
S1130FE0909145019E9D812D11248695282F220FD5
S1130FF0280F921B692F660F660F660F691B6F5FC0
S113100074D9FFE72AE186E0F15020408040E1F7FF
S113101000C000004C9BFECF0BC09F2D9160F92EA9
S113102084E0EEE6F0E0808378946FE088E03ADCD8
S1131030329B68CDE6E4F1E080E591E01192E81797
S1131040F907E1F7C0DA5ECD8091000185CE97FB08
S1131050072E16F4009406D077FD08D00BD007FCB9
S113106005D03EF4909581959F4F089570956195B4
S11310707F4F0895AA1BBB1B51E107C0AA1FBB1FCA
S1131080A617B70710F0A61BB70B881F991F5A9510
S1131090A9F780959095BC01CD010895F999FECFEB
S11310A092BD81BDF89A992780B50895262FF999A4
S11310B0FECF1FBA92BD81BD20BD0FB6F894FA9A37
S10F10C0F99A0FBE01960895F894FFCF32
S11310CC0E7EFF0603000001EF7EFF060600000102
S11310DCEF5354414E444259002052454144592047
S11310EC0053455454494E4700204544495420204C
S11310FC00204552524F522000504C415945520049
S9030000FC
